:100000000C947B000C947D050C946D050C940F04EE
:100010000C9481040C947D050C947D050C947D0555
:100020000C947D050C947D050C947D050C947D0548
:100030000C947D050C947D050C947D050C947D0538
:100040000C947D050C947D050C947D050C947D0528
:100050000C947D050C947D050C947D050C947D0518
:100060000C947D050C947D050C947D050C947D0508
:100070000C947D050C947D050C947D050C947D05F8
:100080000C947D050C947D050C947D050C947D05E8
:100090000C947D050C947D050C947D050C947D05D8
:1000A0003002410253026502770289029B02AC02D0
:1000B000BF02CF02EA02FA020B031C032D033E0328
:1000C0004F035F0371038003730185019701A90149
:1000D000BB01CD01DF01F10104021502AE00C00039
:1000E000D300E600F9000D0120013201460157015D
:1000F0002800280E800011241FBECFEFCDBFDFE304
:10010000DEBFE0EFF0E040E017C0B591A59135917A
:100110002591059107FD0CC095918591EF01F92F6F
:10012000E82F05900D92A217B307D9F7FE0104C07E
:100130001D92A217B307E1F7E53FF40731F70E94DC
:0A01400015050C945205F894FFCF4A
:10014A008A30910508F0C0C0FC01E259FF4F0C94B7
:10015A007305A5E6B4E081E08C93E5E4F4E080E27F
:10016A00808380E1808388E0808384E0808392E0DA
:10017A009C9380936604E5E4F4E080E2808380E166
:10018A008083E6E6F4E084E0808391E0908392E065
:10019A009083E6E4F4E0808388E08083A5E6B4E017
:1001AA0081E08C93E5E4F4E080E2808384E08C9340
:1001BA00808388E0808382E08093660480E1809374
:1001CA004604A5E6B4E081E08C93E5E4F4E080E23D
:1001DA00808384E08C9390E1908398E0908392E00E
:1001EA009093660480934604A5E6B4E082E08C937B
:1001FA00E5E4F4E080E2808384E08C9390E19083EC
:10020A0091E090936604E6E4F4E0808388E08083DA
:10021A00E5E6F4E081E0808382E0808384E0808305
:10022A00E5E4F4E090E1908398E09083E6E4F4E07A
:10023A0090E290838083E5E6F4E081E0808382E0C7
:10024A00808384E08083E5E4F4E090E1908398E0A1
:10025A009083808380E28093460481E080936504E2
:10026A00E5E4F4E080E2808380E18083E6E6F4E07E
:10027A0082E0808384E08083E6E4F4E0808388E09F
:10028A008083E5E6F4E081E0808382E0808384E095
:10029A008083E5E4F4E090E1908398E090838083A2
:1002AA0080E28083E5E6F4E081E0808382E0808377
:1002BA0084E08083E5E4F4E090E1908398E0908321
:0A02CA0090E29083809346040895AB
:1002D4008A30910508F0B8C0FC01EC59FF4F0C942A
:1002E4007305E5E6F4E090E1908388E0808381E0A3
:1002F40080934504A5E2B4E080E28C939C938083D0
:1003040080E48093660488E08093650481E08093B0
:100314004504E6E6F4E080E4808390E1908380E2A3
:100324008083E6E2F4E090838083E5E6F4E080E114
:10033400808398E0908390E49083E5E2F4E0808306
:1003440080E280838093660481E080934604E5E63E
:10035400F4E080E1808398E0908390E4908391E0DE
:100364009093450490E290932504909366048093BF
:100374002604E5E6F4E080E2808398E0908390E44C
:10038400908391E09093450490E190936604E6E2B3
:10039400F4E090838083E5E6F4E080E1808390E2FA
:1003A400908320E4208321E0209345049093250446
:1003B40098E09093660480932604E5E6F4E080E1F7
:1003C400808390E2908320E4208321E020934504FD
:1003D400E5E2F4E09083808388E080936604E5E6B8
:1003E400F4E090E1908388E0808381E08093450489
:1003F400E6E6F4E080E2808320E42083E6E2F4E0B1
:1004040090838083E5E6F4E080E1808390E290834A
:1004140020E4208321E020934504A5E2B4E09C93EA
:100424008C9388E08083E5E6F4E080E1808390E2C9
:10043400908320E4208321E02093450490932504B5
:0A04440098E0908380932604089549
:10044E008A30910508F0B5C0FC01E05BFF4F0C94BB
:10045E007305E5EAF4E088E0808384E08083A5E01C
:10046E00B4E080E48C9380E28C9390E19C93908333
:10047E008093A60484E08093A50480E48093050411
:10048E00E6EAF4E080E2808398E0908390E1908346
:10049E00E6E0F4E090838083E5EAF4E088E0808390
:1004AE0084E0808390E29083E5E0F4E080E1808355
:1004BE0090838093A60480E480930604E5EAF4E03A
:1004CE0088E0808384E0808380E28083E5E0F4E04E
:1004DE0090E49083808380E18093A6048093060449
:1004EE00E5EAF4E090E1908384E0808380E280830B
:1004FE0020E42093050428E02093A604E6E0F4E02F
:10050E0090838083E5EAF4E088E0808380E1808355
:10051E0090E29083E5E0F4E020E42083908394E081
:10052E009093A60480930604E5EAF4E088E08083C5
:10053E0080E1808390E29083E5E0F4E020E4208384
:10054E009083808384E08093A604E5EAF4E088E05B
:10055E00808384E0808380E480930504E6EAF4E0FF
:10056E0090E1908380E28083E6E0F4E090838083E4
:10057E00E5EAF4E088E0808380E1808390E2908376
:10058E00A5E0B4E020E42C939C938C9384E08083CC
:10059E00E5EAF4E088E0808380E1808390E2908356
:1005AE00A5E0B4E020E42C939C9394E09083809398
:0405BE000604089592
:1005C2008A30910508F0ABC0FC01E65AFF4F0C944B
:1005D2007305E5E8F4E022E0208391E09083A5E250
:1005E200B4E084E08C932C939C93808388E0809386
:1005F200860491E09093850424E020932504E6E8A4
:10060200F4E088E0808382E080832083E6E2F4E005
:1006120090838083E5E8F4E082E0808391E0908338
:1006220028E02083E5E2F4E09083808384E08093F5
:10063200860480932604E5E8F4E022E0208381E04A
:10064200808398E09083E5E2F4E094E09083208355
:100652009093860480932604E5E8F4E084E08083A6
:1006620091E0908328E020838093250482E08093A8
:100672008604E6E2F4E090838083E5E8F4E082E039
:10068200808394E0908328E02083E5E2F4E0908385
:10069200808381E08093860480932604E5E8F4E079
:1006A20082E0808394E0908328E02083E5E2F4E016
:1006B2009083808381E0808380938604E5E8F4E080
:1006C20082E0808391E0908324E020932504E6E891
:1006D200F4E0208328E02083E6E2F4E09083808344
:1006E200E5E8F4E082E0808394E0908328E02083D0
:1006F200A5E2B4E09C938C9381E08C938083E5E83F
:10070200F4E082E0808394E0908328E02083A5E2F5
:10071200B4E09C938C9381E08083809326040895B7
:100722000F931F93CF93DF930E944A0440E054E05B
:100732008CEFFA01808320E234E08FE3F9018083B9
:1007420080E494E06FEBFC016083C0E6D4E06FEFDD
:100752006883A0E8B4E06FE06C9300EA14E06CE315
:10076200F8016083FA011482F9011482FC011482F7
:100772001C8214961C921497F8011482FA01108AB2
:10078200118A128A138A148A158A168A178AF9011B
:10079200108A118A128A138A148A158A168A178A6B
:1007A200FC01108A118A128A138A148A158A168AFF
:1007B200178A188A198A1A8A1B8A1C8A1D8A1E8A13
:1007C2001F8A50961C92509751961C92519752969E
:1007D2001C92529753961C92539754961C9254977C
:1007E20055961C92559756961C92569757961C9260
:1007F200F801108A118A128A138A148A158A168AB3
:10080200178AE0EEF5E011821082148215821382BB
:0C0812001282DF91CF911F910F91089589
:10081E001F920F920FB60F9211242F933F934F9367
:10082E005F936F937F938F939F93AF93BF93EF934A
:10083E00FF938091430180FF07C0E0910428F0915F
:10084E000528309709F009958091430181FF07C073
:10085E00E0910228F0910328309709F0099583E082
:10086E0080934301FF91EF91BF91AF919F918F9133
:10087E007F916F915F914F913F912F910F900FBE8E
:06088E000F901F90189569
:10089400E0E9F4E0808188608193E83984E0F80736
:1008A400C9F7E0EBF4E0808188608193E83B84E061
:1008B400F807C9F7E0E1F4E0808188608193E831CA
:1008C40084E0F807C9F7E0E3F4E08081886081936D
:1008D400E83384E0F807C9F7E0E5F4E08081886054
:1008E4008193E83584E0F807C9F7E0E7F4E0808114
:0E08F40088608193E83784E0F807C9F708951B
:100902001F920F920FB60F9211242F933F934F9382
:100912005F936F937F938F939F93AF93BF93EF9365
:10092200FF93E0910028F0910128309709F0099592
:1009320081E080935301FF91EF91BF91AF919F911D
:100942008F917F916F915F914F913F912F910F9076
:080952000FBE0F901F901895D5
:10095A0040E068ED88E790E00E94790540E068EDA4
:10096A008CE790E00E94790540E068ED80E790E02E
:10097A000E94790541E068ED81E690E00E947905E0
:10098A0042E068ED80E690E00E94790540E068ED7B
:0C099A0082E690E00E94790580E008955C
:1009A600EF92FF920F931F93CF93DF938C01EB018E
:1009B600CA017901E6E0F4E028E0208324E0208300
:1009C6000E94A500C7010E946A01C8010E94E102B7
:1009D600CE010E942702DF91CF911F910F91FF90C8
:0409E600EF900895F1
:1009EA00E0E4F1E081818111FDCFE0E4F1E08EE302
:1009FA0090E084879587108611868287938782E0A4
:100A0A00878381E0828389E4808381898111FDCF94
:100A1A00E0E4F1E081E0828B81E4808B80E008955C
:100A2A000E942A0520910A2830910B2840910C280F
:100A3A0050910D2860910628709107288091082806
:0A0A4A00909109280E94D304EDCF1B
:100A54000E9491030E9446050E9465050E94AD0410
:0E0A64000E945D050E94F5040E943905089568
:100A720040E068ED80E191E00E947905E0E1F1E07B
:0A0A820012821382789480E0089538
:100A8C0040E068ED80E890E00E947905E0E8F0E055
:080A9C001186108680E0089528
:100AA400EC010E9482050E948105CE010E9483050B
:060AB400CE010E947F0547
:100ABA0040E068ED80E590E00E94790580E00895C5
:100ACA0040E068ED80E091E00E94790580E00895B9
:0C0ADA008F9381E080938A008F91189523
:0C0AE600EE0FFF1F0590F491E02D099425
:080AF200FC0164BF408308957C
:040AFA000C94000058
:040AFE000E94A300AF
:020B0200089554
:020B0400089552
:020B0600089550
:02000004008278
:090000000000020000C00700002E
:00000001FF
